{"abi":[{"type":"constructor","inputs":[],"stateMutability":"nonpayable"},{"type":"function","name":"DOMAIN_SEPARATOR","inputs":[],"outputs":[{"name":"","type":"bytes32","internalType":"bytes32"}],"stateMutability":"view"},{"type":"function","name":"STATE_TYPEHASH","inputs":[],"outputs":[{"name":"","type":"bytes32","internalType":"bytes32"}],"stateMutability":"view"},{"type":"function","name":"channels","inputs":[{"name":"","type":"uint256","internalType":"uint256"}],"outputs":[{"name":"channelID","type":"uint256","internalType":"uint256"},{"name":"version","type":"uint256","internalType":"uint256"},{"name":"appData","type":"bytes","internalType":"bytes"},{"name":"isClosed","type":"bool","internalType":"bool"}],"stateMutability":"view"},{"type":"function","name":"closeChannel","inputs":[{"name":"channelID","type":"uint256","internalType":"uint256"},{"name":"finalState","type":"bytes","internalType":"bytes"},{"name":"signatures","type":"bytes[]","internalType":"bytes[]"}],"outputs":[],"stateMutability":"nonpayable"},{"type":"function","name":"disputeChannel","inputs":[{"name":"channelID","type":"uint256","internalType":"uint256"},{"name":"state","type":"bytes","internalType":"bytes"}],"outputs":[],"stateMutability":"nonpayable"},{"type":"function","name":"encodeStateHash","inputs":[{"name":"channelID","type":"uint256","internalType":"uint256"},{"name":"version","type":"uint256","internalType":"uint256"},{"name":"allocations","type":"uint256[]","internalType":"uint256[]"},{"name":"appData","type":"bytes","internalType":"bytes"}],"outputs":[{"name":"","type":"bytes32","internalType":"bytes32"}],"stateMutability":"view"},{"type":"function","name":"getChannelState","inputs":[{"name":"channelID","type":"uint256","internalType":"uint256"}],"outputs":[{"name":"version","type":"uint256","internalType":"uint256"},{"name":"aliceBalance","type":"uint256","internalType":"uint256"},{"name":"bobBalance","type":"uint256","internalType":"uint256"}],"stateMutability":"view"},{"type":"function","name":"nextChannelID","inputs":[],"outputs":[{"name":"","type":"uint256","internalType":"uint256"}],"stateMutability":"view"},{"type":"function","name":"openChannel","inputs":[{"name":"participants","type":"address[]","internalType":"address[]"}],"outputs":[{"name":"channelID","type":"uint256","internalType":"uint256"}],"stateMutability":"nonpayable"},{"type":"function","name":"updateState","inputs":[{"name":"channelID","type":"uint256","internalType":"uint256"},{"name":"state","type":"bytes","internalType":"bytes"},{"name":"signatures","type":"bytes[]","internalType":"bytes[]"}],"outputs":[],"stateMutability":"nonpayable"},{"type":"event","name":"ChannelClosed","inputs":[{"name":"channelID","type":"uint256","indexed":true,"internalType":"uint256"},{"name":"finalState","type":"bytes","indexed":false,"internalType":"bytes"}],"anonymous":false},{"type":"event","name":"ChannelOpened","inputs":[{"name":"channelID","type":"uint256","indexed":true,"internalType":"uint256"},{"name":"participants","type":"address[]","indexed":false,"internalType":"address[]"}],"anonymous":false},{"type":"event","name":"DisputeRaised","inputs":[{"name":"channelID","type":"uint256","indexed":true,"internalType":"uint256"}],"anonymous":false},{"type":"event","name":"StateUpdated","inputs":[{"name":"channelID","type":"uint256","indexed":true,"internalType":"uint256"},{"name":"version","type":"uint256","indexed":false,"internalType":"uint256"}],"anonymous":false},{"type":"error","name":"ECDSAInvalidSignature","inputs":[]},{"type":"error","name":"ECDSAInvalidSignatureLength","inputs":[{"name":"length","type":"uint256","internalType":"uint256"}]},{"type":"error","name":"ECDSAInvalidSignatureS","inputs":[{"name":"s","type":"bytes32","internalType":"bytes32"}]},{"type":"error","name":"ReentrancyGuardReentrantCall","inputs":[]}],"bytecode":{"object":"0x60c060405234801561000f575f80fd5b50600161002e61002361011b60201b60201c565b61014460201b60201c565b5f01819055507fc2f8787176b8ac6bf7215b4adcc1e069bf4ab82d9ab1df05a57a91d425935b6e7fcd139143b8bf4c84510bf2d05e693bd026d34dbf305f992ec1a2464ced868ec47fc89efdaa54c0f20c7adf612882df0950f5a951637e0307cdcb4c672f298b8bc6466040516020016100ab949392919061017d565b60405160208183030381529060405280519060200120608081815250507fd89cac3cdc953384aac67b232383a6301097546d389156df8bbf80981977b54d6040516020016100f991906101c0565b6040516020818303038152906040528051906020012060a081815250506101d9565b5f7f9b779b17422d0df92223018b32b4d1fa46e071723d6817e2486d003becc55f005f1b905090565b5f819050919050565b5f819050919050565b61015f8161014d565b82525050565b5f819050919050565b61017781610165565b82525050565b5f6080820190506101905f830187610156565b61019d6020830186610156565b6101aa6040830185610156565b6101b7606083018461016e565b95945050505050565b5f6020820190506101d35f830184610156565b92915050565b60805160a0516124b76102015f395f8181610414015261080801525f61049a01526124b75ff3fe608060405234801561000f575f80fd5b506004361061009c575f3560e01c8063928d506f11610064578063928d506f14610156578063abcfbb1714610174578063b2627a6414610192578063cf96cb3c146101ae578063e5949b5d146101e05761009c565b8063119be3ef146100a05780631336021c146100d05780633644e515146101005780633f8867ea1461011e57806380dc3b491461013a575b5f80fd5b6100ba60048036038101906100b59190611367565b610213565b6040516100c791906113c6565b60405180910390f35b6100ea60048036038101906100e59190611579565b610411565b6040516100f7919061162d565b60405180910390f35b610108610498565b604051610115919061162d565b60405180910390f35b61013860048036038101906101339190611724565b6104bc565b005b610154600480360381019061014f91906117ac565b610726565b005b61015e610806565b60405161016b919061162d565b60405180910390f35b61017c61082a565b60405161018991906113c6565b60405180910390f35b6101ac60048036038101906101a79190611724565b610830565b005b6101c860048036038101906101c39190611806565b610ae0565b6040516101d793929190611831565b60405180910390f35b6101fa60048036038101906101f59190611806565b610b9d565b60405161020a94939291906118e0565b60405180910390f35b5f6002825114610258576040517f08c379a000000000000000000000000000000000000000000000000000000000815260040161024f90611984565b60405180910390fd5b60015f81548092919061026a906119cf565b9190505590505f600267ffffffffffffffff81111561028c5761028b6111d1565b5b6040519080825280602002602001820160405280156102ba5781602001602082028036833780820191505090505b5090506103e8815f815181106102d3576102d2611a16565b5b6020026020010181815250506103e8816001815181106102f6576102f5611a16565b5b6020026020010181815250506040518060c001604052808381526020015f815260200184815260200182815260200160405180602001604052805f81525081526020015f15158152505f808481526020019081526020015f205f820151815f015560208201518160010155604082015181600201908051906020019061037d9291906110bf565b50606082015181600301908051906020019061039a929190611146565b5060808201518160040190816103b09190611c3d565b5060a0820151816005015f6101000a81548160ff021916908315150217905550905050817f0c5de5d992d2410838d35331827ef8b5d2d219a45a02d71b8538faad5a53f7f6846040516104039190611dc3565b60405180910390a250919050565b5f7f00000000000000000000000000000000000000000000000000000000000000008585856040516020016104469190611e94565b604051602081830303815290604052805190602001208580519060200120604051602001610478959493929190611eaa565b604051602081830303815290604052805190602001209050949350505050565b7f000000000000000000000000000000000000000000000000000000000000000081565b6104c4610c5a565b5f805f8581526020019081526020015f20905083815f01541461051c576040517f08c379a000000000000000000000000000000000000000000000000000000000815260040161051390611f45565b60405180910390fd5b806005015f9054906101000a900460ff161561056d576040517f08c379a000000000000000000000000000000000000000000000000000000000815260040161056490611fad565b60405180910390fd5b6105778133610c7c565b6105b6576040517f08c379a00000000000000000000000000000000000000000000000000000000081526004016105ad90612015565b60405180910390fd5b5f806105c185610d23565b50915091505f84511180156105f057505f845f815181106105e5576105e4611a16565b5b602002602001015151115b156106b9575f61061087848460405180602001604052805f815250610411565b90505f8160405160200161062491906120a7565b6040516020818303038152906040528051906020012090505f61066a875f8151811061065357610652611a16565b5b602002602001015183610d4e90919063ffffffff16565b90506106768682610c7c565b6106b5576040517f08c379a00000000000000000000000000000000000000000000000000000000081526004016106ac90612116565b60405180910390fd5b5050505b6001836005015f6101000a81548160ff0219169083151502179055505f8360010181905550857f6096b9acc4548566651d56b2906ce3f40b3fe8ffaed8c8e425b66973bafc8e1c8660405161070e9190612134565b60405180910390a2505050610721610d78565b505050565b5f805f8481526020019081526020015f20905082815f01541461077e576040517f08c379a000000000000000000000000000000000000000000000000000000000815260040161077590611f45565b60405180910390fd5b5f61078883610d23565b5050905081600101548110156107d3576040517f08c379a00000000000000000000000000000000000000000000000000000000081526004016107ca9061219e565b60405180910390fd5b837f04901f83201c8724eadf084436db8aa391820bae6d11f9f78a17edb6f2eef3cf60405160405180910390a250505050565b7f000000000000000000000000000000000000000000000000000000000000000081565b60015481565b5f805f8581526020019081526020015f20905083815f015414610888576040517f08c379a000000000000000000000000000000000000000000000000000000000815260040161087f90611f45565b60405180910390fd5b806005015f9054906101000a900460ff16156108d9576040517f08c379a00000000000000000000000000000000000000000000000000000000081526004016108d090611fad565b60405180910390fd5b6108e38133610c7c565b610922576040517f08c379a000000000000000000000000000000000000000000000000000000000815260040161091990612015565b60405180910390fd5b5f805f61092e86610d23565b9250925092506001846001015461094591906121bc565b8314610986576040517f08c379a000000000000000000000000000000000000000000000000000000000815260040161097d90612239565b60405180910390fd5b5f85511180156109b057505f855f815181106109a5576109a4611a16565b5b602002602001015151115b15610a6b575f6109c288858585610411565b90505f816040516020016109d691906120a7565b6040516020818303038152906040528051906020012090505f610a1c885f81518110610a0557610a04611a16565b5b602002602001015183610d4e90919063ffffffff16565b9050610a288782610c7c565b610a67576040517f08c379a0000000000000000000000000000000000000000000000000000000008152600401610a5e90612116565b60405180910390fd5b5050505b82846001018190555081846003019080519060200190610a8c929190611146565b5080846004019081610a9e9190611c3d565b50867f210cbb60935822c957f36bfad9f082e34516b470d608565d6e21abfd2d771beb84604051610acf91906113c6565b60405180910390a250505050505050565b5f805f805f808681526020019081526020015f20905084815f015414610b3b576040517f08c379a0000000000000000000000000000000000000000000000000000000008152600401610b3290611f45565b60405180910390fd5b806001015493506002816003018054905010610b9557806003015f81548110610b6757610b66611a16565b5b905f5260205f200154925080600301600181548110610b8957610b88611a16565b5b905f5260205f20015491505b509193909250565b5f602052805f5260405f205f91509050805f015490806001015490806004018054610bc790611a70565b80601f0160208091040260200160405190810160405280929190818152602001828054610bf390611a70565b8015610c3e5780601f10610c1557610100808354040283529160200191610c3e565b820191905f5260205f20905b815481529060010190602001808311610c2157829003601f168201915b505050505090806005015f9054906101000a900460ff16905084565b610c62610d92565b6002610c74610c6f610dd3565b610dfc565b5f0181905550565b5f805f90505b8360020180549050811015610d18578273ffffffffffffffffffffffffffffffffffffffff16846002018281548110610cbe57610cbd611a16565b5b905f5260205f20015f9054906101000a900473ffffffffffffffffffffffffffffffffffffffff1673ffffffffffffffffffffffffffffffffffffffff1603610d0b576001915050610d1d565b8080600101915050610c82565b505f90505b92915050565b5f60608083806020019051810190610d3b919061236e565b8093508194508295505050509193909250565b5f805f80610d5c8686610e05565b925092509250610d6c8282610e5a565b82935050505092915050565b6001610d8a610d85610dd3565b610dfc565b5f0181905550565b610d9a610fbc565b15610dd1576040517f3ee5aeb500000000000000000000000000000000000000000000000000000000815260040160405180910390fd5b565b5f7f9b779b17422d0df92223018b32b4d1fa46e071723d6817e2486d003becc55f005f1b905090565b5f819050919050565b5f805f6041845103610e45575f805f602087015192506040870151915060608701515f1a9050610e3788828585610fd8565b955095509550505050610e53565b5f600285515f1b9250925092505b9250925092565b5f6003811115610e6d57610e6c6123f6565b5b826003811115610e8057610e7f6123f6565b5b0315610fb85760016003811115610e9a57610e996123f6565b5b826003811115610ead57610eac6123f6565b5b03610ee4576040517ff645eedf00000000000000000000000000000000000000000000000000000000815260040160405180910390fd5b60026003811115610ef857610ef76123f6565b5b826003811115610f0b57610f0a6123f6565b5b03610f4f57805f1c6040517ffce698f7000000000000000000000000000000000000000000000000000000008152600401610f4691906113c6565b60405180910390fd5b600380811115610f6257610f616123f6565b5b826003811115610f7557610f746123f6565b5b03610fb757806040517fd78bce0c000000000000000000000000000000000000000000000000000000008152600401610fae919061162d565b60405180910390fd5b5b5050565b5f6002610fcf610fca610dd3565b610dfc565b5f015414905090565b5f805f7f7fffffffffffffffffffffffffffffff5d576e7357a4501ddfe92f46681b20a0845f1c1115611014575f6003859250925092506110b5565b5f6001888888886040515f8152602001604052604051611037949392919061243e565b6020604051602081039080840390855afa158015611057573d5f803e3d5ffd5b5050506020604051035190505f73ffffffffffffffffffffffffffffffffffffffff168173ffffffffffffffffffffffffffffffffffffffff16036110a8575f60015f801b935093509350506110b5565b805f805f1b935093509350505b9450945094915050565b828054828255905f5260205f20908101928215611135579160200282015b82811115611134578251825f6101000a81548173ffffffffffffffffffffffffffffffffffffffff021916908373ffffffffffffffffffffffffffffffffffffffff160217905550916020019190600101906110dd565b5b5090506111429190611191565b5090565b828054828255905f5260205f20908101928215611180579160200282015b8281111561117f578251825591602001919060010190611164565b5b50905061118d9190611191565b5090565b5b808211156111a8575f815f905550600101611192565b5090565b5f604051905090565b5f80fd5b5f80fd5b5f80fd5b5f601f19601f8301169050919050565b7f4e487b71000000000000000000000000000000000000000000000000000000005f52604160045260245ffd5b611207826111c1565b810181811067ffffffffffffffff82111715611226576112256111d1565b5b80604052505050565b5f6112386111ac565b905061124482826111fe565b919050565b5f67ffffffffffffffff821115611263576112626111d1565b5b602082029050602081019050919050565b5f80fd5b5f73ffffffffffffffffffffffffffffffffffffffff82169050919050565b5f6112a182611278565b9050919050565b6112b181611297565b81146112bb575f80fd5b50565b5f813590506112cc816112a8565b92915050565b5f6112e46112df84611249565b61122f565b9050808382526020820190506020840283018581111561130757611306611274565b5b835b81811015611330578061131c88826112be565b845260208401935050602081019050611309565b5050509392505050565b5f82601f83011261134e5761134d6111bd565b5b813561135e8482602086016112d2565b91505092915050565b5f6020828403121561137c5761137b6111b5565b5b5f82013567ffffffffffffffff811115611399576113986111b9565b5b6113a58482850161133a565b91505092915050565b5f819050919050565b6113c0816113ae565b82525050565b5f6020820190506113d95f8301846113b7565b92915050565b6113e8816113ae565b81146113f2575f80fd5b50565b5f81359050611403816113df565b92915050565b5f67ffffffffffffffff821115611423576114226111d1565b5b602082029050602081019050919050565b5f61144661144184611409565b61122f565b9050808382526020820190506020840283018581111561146957611468611274565b5b835b81811015611492578061147e88826113f5565b84526020840193505060208101905061146b565b5050509392505050565b5f82601f8301126114b0576114af6111bd565b5b81356114c0848260208601611434565b91505092915050565b5f80fd5b5f67ffffffffffffffff8211156114e7576114e66111d1565b5b6114f0826111c1565b9050602081019050919050565b828183375f83830152505050565b5f61151d611518846114cd565b61122f565b905082815260208101848484011115611539576115386114c9565b5b6115448482856114fd565b509392505050565b5f82601f8301126115605761155f6111bd565b5b813561157084826020860161150b565b91505092915050565b5f805f8060808587031215611591576115906111b5565b5b5f61159e878288016113f5565b94505060206115af878288016113f5565b935050604085013567ffffffffffffffff8111156115d0576115cf6111b9565b5b6115dc8782880161149c565b925050606085013567ffffffffffffffff8111156115fd576115fc6111b9565b5b6116098782880161154c565b91505092959194509250565b5f819050919050565b61162781611615565b82525050565b5f6020820190506116405f83018461161e565b92915050565b5f67ffffffffffffffff8211156116605761165f6111d1565b5b602082029050602081019050919050565b5f61168361167e84611646565b61122f565b905080838252602082019050602084028301858111156116a6576116a5611274565b5b835b818110156116ed57803567ffffffffffffffff8111156116cb576116ca6111bd565b5b8086016116d8898261154c565b855260208501945050506020810190506116a8565b5050509392505050565b5f82601f83011261170b5761170a6111bd565b5b813561171b848260208601611671565b91505092915050565b5f805f6060848603121561173b5761173a6111b5565b5b5f611748868287016113f5565b935050602084013567ffffffffffffffff811115611769576117686111b9565b5b6117758682870161154c565b925050604084013567ffffffffffffffff811115611796576117956111b9565b5b6117a2868287016116f7565b9150509250925092565b5f80604083850312156117c2576117c16111b5565b5b5f6117cf858286016113f5565b925050602083013567ffffffffffffffff8111156117f0576117ef6111b9565b5b6117fc8582860161154c565b9150509250929050565b5f6020828403121561181b5761181a6111b5565b5b5f611828848285016113f5565b91505092915050565b5f6060820190506118445f8301866113b7565b61185160208301856113b7565b61185e60408301846113b7565b949350505050565b5f81519050919050565b5f82825260208201905092915050565b8281835e5f83830152505050565b5f61189882611866565b6118a28185611870565b93506118b2818560208601611880565b6118bb816111c1565b840191505092915050565b5f8115159050919050565b6118da816118c6565b82525050565b5f6080820190506118f35f8301876113b7565b61190060208301866113b7565b8181036040830152611912818561188e565b905061192160608301846118d1565b95945050505050565b5f82825260208201905092915050565b7f4d75737420686176652065786163746c792032207061727469636970616e74735f82015250565b5f61196e60208361192a565b91506119798261193a565b602082019050919050565b5f6020820190508181035f83015261199b81611962565b9050919050565b7f4e487b71000000000000000000000000000000000000000000000000000000005f52601160045260245ffd5b5f6119d9826113ae565b91507fffffffffffffffffffffffffffffffffffffffffffffffffffffffffffffffff8203611a0b57611a0a6119a2565b5b600182019050919050565b7f4e487b71000000000000000000000000000000000000000000000000000000005f52603260045260245ffd5b7f4e487b71000000000000000000000000000000000000000000000000000000005f52602260045260245ffd5b5f6002820490506001821680611a8757607f821691505b602082108103611a9a57611a99611a43565b5b50919050565b5f819050815f5260205f209050919050565b5f6020601f8301049050919050565b5f82821b905092915050565b5f60088302611afc7fffffffffffffffffffffffffffffffffffffffffffffffffffffffffffffffff82611ac1565b611b068683611ac1565b95508019841693508086168417925050509392505050565b5f819050919050565b5f611b41611b3c611b37846113ae565b611b1e565b6113ae565b9050919050565b5f819050919050565b611b5a83611b27565b611b6e611b6682611b48565b848454611acd565b825550505050565b5f90565b611b82611b76565b611b8d818484611b51565b505050565b5b81811015611bb057611ba55f82611b7a565b600181019050611b93565b5050565b601f821115611bf557611bc681611aa0565b611bcf84611ab2565b81016020851015611bde578190505b611bf2611bea85611ab2565b830182611b92565b50505b505050565b5f82821c905092915050565b5f611c155f1984600802611bfa565b1980831691505092915050565b5f611c2d8383611c06565b9150826002028217905092915050565b611c4682611866565b67ffffffffffffffff811115611c5f57611c5e6111d1565b5b611c698254611a70565b611c74828285611bb4565b5f60209050601f831160018114611ca5575f8415611c93578287015190505b611c9d8582611c22565b865550611d04565b601f198416611cb386611aa0565b5f5b82811015611cda57848901518255600182019150602085019450602081019050611cb5565b86831015611cf75784890151611cf3601f891682611c06565b8355505b6001600288020188555050505b505050505050565b5f81519050919050565b5f82825260208201905092915050565b5f819050602082019050919050565b611d3e81611297565b82525050565b5f611d4f8383611d35565b60208301905092915050565b5f602082019050919050565b5f611d7182611d0c565b611d7b8185611d16565b9350611d8683611d26565b805f5b83811015611db6578151611d9d8882611d44565b9750611da883611d5b565b925050600181019050611d89565b5085935050505092915050565b5f6020820190508181035f830152611ddb8184611d67565b905092915050565b5f81519050919050565b5f81905092915050565b5f819050602082019050919050565b611e0f816113ae565b82525050565b5f611e208383611e06565b60208301905092915050565b5f602082019050919050565b5f611e4282611de3565b611e4c8185611ded565b9350611e5783611df7565b805f5b83811015611e87578151611e6e8882611e15565b9750611e7983611e2c565b925050600181019050611e5a565b5085935050505092915050565b5f611e9f8284611e38565b915081905092915050565b5f60a082019050611ebd5f83018861161e565b611eca60208301876113b7565b611ed760408301866113b7565b611ee4606083018561161e565b611ef1608083018461161e565b9695505050505050565b7f4368616e6e656c4e6f74466f756e6400000000000000000000000000000000005f82015250565b5f611f2f600f8361192a565b9150611f3a82611efb565b602082019050919050565b5f6020820190508181035f830152611f5c81611f23565b9050919050565b7f4368616e6e656c416c7265616479436c6f7365640000000000000000000000005f82015250565b5f611f9760148361192a565b9150611fa282611f63565b602082019050919050565b5f6020820190508181035f830152611fc481611f8b565b9050919050565b7f4f6e6c795061727469636970616e7400000000000000000000000000000000005f82015250565b5f611fff600f8361192a565b915061200a82611fcb565b602082019050919050565b5f6020820190508181035f83015261202c81611ff3565b9050919050565b5f81905092915050565b7f19457468657265756d205369676e6564204d6573736167653a0a3332000000005f82015250565b5f612071601c83612033565b915061207c8261203d565b601c82019050919050565b5f819050919050565b6120a161209c82611615565b612087565b82525050565b5f6120b182612065565b91506120bd8284612090565b60208201915081905092915050565b7f496e76616c69645369676e6174757265730000000000000000000000000000005f82015250565b5f61210060118361192a565b915061210b826120cc565b602082019050919050565b5f6020820190508181035f83015261212d816120f4565b9050919050565b5f6020820190508181035f83015261214c818461188e565b905092915050565b7f496e76616c696453746174653a207374616c65207374617465000000000000005f82015250565b5f61218860198361192a565b915061219382612154565b602082019050919050565b5f6020820190508181035f8301526121b58161217c565b9050919050565b5f6121c6826113ae565b91506121d1836113ae565b92508282019050808211156121e9576121e86119a2565b5b92915050565b7f496e76616c6964537461746500000000000000000000000000000000000000005f82015250565b5f612223600c8361192a565b915061222e826121ef565b602082019050919050565b5f6020820190508181035f83015261225081612217565b9050919050565b5f81519050612265816113df565b92915050565b5f61227d61227884611409565b61122f565b905080838252602082019050602084028301858111156122a05761229f611274565b5b835b818110156122c957806122b58882612257565b8452602084019350506020810190506122a2565b5050509392505050565b5f82601f8301126122e7576122e66111bd565b5b81516122f784826020860161226b565b91505092915050565b5f61231261230d846114cd565b61122f565b90508281526020810184848401111561232e5761232d6114c9565b5b612339848285611880565b509392505050565b5f82601f830112612355576123546111bd565b5b8151612365848260208601612300565b91505092915050565b5f805f60608486031215612385576123846111b5565b5b5f61239286828701612257565b935050602084015167ffffffffffffffff8111156123b3576123b26111b9565b5b6123bf868287016122d3565b925050604084015167ffffffffffffffff8111156123e0576123df6111b9565b5b6123ec86828701612341565b9150509250925092565b7f4e487b71000000000000000000000000000000000000000000000000000000005f52602160045260245ffd5b5f60ff82169050919050565b61243881612423565b82525050565b5f6080820190506124515f83018761161e565b61245e602083018661242f565b61246b604083018561161e565b612478606083018461161e565b9594505050505056fea2646970667358221220fb4f5282b494db3025bc0d6deddfd68fefef2abce35a2fd6c196c71c511ee85a64736f6c634300081a0033","linkReferences":{}},"methodIdentifiers":{"DOMAIN_SEPARATOR()":"3644e515","STATE_TYPEHASH()":"928d506f","channels(uint256)":"e5949b5d","closeChannel(uint256,bytes,bytes[])":"3f8867ea","disputeChannel(uint256,bytes)":"80dc3b49","encodeStateHash(uint256,uint256,uint256[],bytes)":"1336021c","getChannelState(uint256)":"cf96cb3c","nextChannelID()":"abcfbb17","openChannel(address[])":"119be3ef","updateState(uint256,bytes,bytes[])":"b2627a64"},"id":0}